S0410000433A5C506572666F7263655C4B6E696768745C4D46542D4A6170616E2D6170702D706C75732D626F6F746C6F616465725C426C7565322D4D46542E733337A8
S31500000000007C0020C5050000110600001106000056
S31500000010110600001106000011060000110600007E
S315000000201106000011060000480600001106000037
S31500000030110600001106000011060000110600005E
S3150000004010B5054C237833B9044B13B10448AFF30C
S3150000005000800123237010BD100100200000000065
S315000000605C060000084B10B51BB108490848AFF301
S3150000007000800848036803B910BD074B002BFBD06E
S31500000080BDE81040184700BF000000001401002022
S315000000905C0600000C01002000000000034AD2F8B4
S315000000A0883043F47003C2F88830704700ED00E0F2
S315000000B0FEE7000010B5104B1049CC690F4AE40763
S315000000C002D593B1013BF8E77BB101231061D36000
S315000000D0D36913F006000DD05A0709D413F0020FA6
S315000000E00CBF00206FF0010010BD6FF0020010BDC4
S315000000F04FF0FF3010BD00BF8096980000000E4004
S31500000100F8B505460C4609B90020F8BD284BEAB9F2
S315000001101A68284B9A4204D840F2C7112648FFF7BE
S31500000120C7FF26490023082055F823208A61244A60
S31500000130C8600133CE69F60703D5002A35D0013AE7
S31500000140F8E7002A31D09C42EED1DDE71A681D4B54
S315000001509A4204D840F203211748FFF7A9FFEFF3AC
S31500000160108672B6154A0023964610461027D169A6
S31500000170090707D4D16901F01901102908BFCEF883
S315000001800C10F4E755F82310816101339C42C760D7
S31500000190EDD106B962B60A4B084AD169C90702D53C
S315000001A01BB1013BF9E7002BAED16FF00200F8BDA1
S315000001B02C0100203F420F002C06000000000E40DC
S315000001C0809698007F9FD5002DE9F0471546820757
S315000001D007468846994604D040F27E212448FFF718
S315000001E067FFAB0704D040F281212148FFF760FF8B
S315000001F0204A9368AD0843F00103936006D11C487A
S3150000020040F28E21FFF754FF28461BE0C246002627
S3150000021007EB86042046FFF74DFF30BBC4F30A0404
S31500000220C4F50064A408AB1B9C4228BF1C464A4682
S3150000023021465046FFF764FF20B92644B5420AEB33
S31500000240840AE5D83A68D8F800309A4208D0384689
S31500000250FFF730FF20B94A4601214046FFF750FF1D
S31500000260044A936823F001039360BDE8F08700BF5A
S315000002702C06000000000E40C0F30A0310B5044629
S3150000028023B140F2F1211C48FFF712FF1B4B9A687D
S3150000029042F001029A6001221C61DA60DA695107B4
S315000002A006D59A6822F001029A604FF0FF3010BD21
S315000002B0DA69920706D59A6822F001029A606FF011
S315000002C0010010BD0222DA600D4AD8690B4910F010
S315000002D001000C4602D012B1013AF6E732B9A36822
S315000002E023F00103A3606FF0020010BD8B6823F0BA
S315000002F001038B6010BD00BF2C06000000000E40FD
S31500000300809698000023FFF75FBF000008B5064BF4
S315000003101A68064B1A6000F063F80028FBD040F21A
S31500000320022000F085F800BF000100202C0100200B
S3150000033008B500F09DF80E4B5B68B3F5803F09D019
S3150000034040F20923984202D0B0F5007F02D100F0B6
S3150000035013F858B94FF40063064A93601A6882F39B
S31500000360088882F309885B689847FEE708BD00BFE6
S3150000037000500E4000ED00E0282370B51B68186998
S31500000380DE68846AB44201D2002070BD06F560536F
S315000003909C42F9D20444A41B0F4B22689A42F3D123
S315000003A04FF0FF32E16800F0FFF80C4B984205462B
S315000003B0EAD140F62803A1681B689A68914209D8D9
S315000003C04FF0FF32D968304600F0EEF8401B18BFF8
S315000003D0012070BD012070BD07B0CD5EE320BBDEFD
S315000003E0F8B528231B681F69DC68BB6A3B441D1BE4
S315000003F02646EA68A3189E4205D2304600F081F8E8
S3150000040006F50066F5E73946204600F085F840F621
S3150000041028034FF0FF321B682046D96800F0C4F865
S31500000420024BC31A58425841F8BD00BFE320BBDE59
S315000004304FF000534FF20F025A800A4A1880136891
S3150000044023F4E06343F480631360BFF34F8F0649E0
S31500000450064BCA6802F4E0621343CB60BFF34F8FCA
S3150000046000BFFDE700500E4000ED00E00400FA0575
S315000004704FF000534FF20F015A888A4201D1188873
S3150000048070473AB91B88012B40F2022018BF4FF47F
S31500000490007070474FF4007070470000044B41F63F
S315000004A071321A649A6822F001029A60704700BF9E
S315000004B000000E40034B9A6822F001029A60002267
S315000004C01A64704700000E4007B503469B0745BFF8
S315000004D009046FEA11416FEA01416FEA014158BF11
S315000004E06FEA1141019120F00300FFF7D7FF0422C4
S315000004F00DEB0201FFF706FFFFF7DCFF03B05DF827
S3150000050004FB08B5FFF7CAFFFFF7B6FEFFF7D2FFF9
S31500000510B0FA80F0400908BDF8B540EA0203144677
S31500000520DA0705460E4601D50020F8BD0CB90120B4
S31500000530F8BD830708D50988FFF7C6FF0028F3D161
S31500000540023CF4D00235023624F00307FFF7A6FF7B
S315000005503A4631462846FFF7D5FEFFF7ABFF00289F
S31500000560E2D1A742E3D0F15B7819FFF7ADFFB0FA0D
S3150000057080F04009F8BD0000484010B5C0B20C0A32
S31500000580082310F0010F4FEA500218BF054803F187
S31500000590FF3314BF5040104613F0FF03F1D1604003
S315000005A010BD00BF2083B8ED38B504464518AC42EF
S315000005B006D0114614F8010BFFF7DEFF0246F6E7F8
S315000005C0104638BD0B4880470B4880470B490C4AFC
S315000005D00C4B9A42BEBF51F8040B42F8040BF8E7E5
S315000005E009490A4A00209142BCBF41F8040BFAE7C8
S315000005F0FFF78CFE9D00000031030000600600003E
S315000006000001002010010020100100203001002010
S31500000610FEE700BFF8B500BFF8BC08BC9E467047B1
S31500000620F8B500BFF8BC08BC9E4670472E2E2F2E8C
S315000006302E2F2E2E2F656D6C69622F7372632F65B8
S315000006406D5F6D73632E6300AD1007B0010000008F
S31500000650000001010008000000800000000000000A
S31500000660C0EA210165000000410000000000000012
S3150000080088100020553500009F0C0000C530000000
S3150000081007100000E31000006F1C0000000000003D
S31500000820000000000000000044090000A31C0000B6
S315000008306F1E000000000000032F0000332F000091
S31500000840FFFFFFFF80000000000000000000000026
S315000008500000000000000000000000000000000092
S315000008600000000000000000000000000000000082
S315000008700000000000000000000000000000000072
S31500000880000000004546523332000000010000001F
S31500000890010000000018020000D801000102030058
S315000008A028000000280000000008000000000400E6
S315000008B08408000002000000200000000001000083
S315000008C0050C0000FFFFFFFFFFFFFFFFFFFFFFFF1D
S315000008D00000000000000000000000000100000011
S315000008E0FFFFFFFF512563FCC2CAB9F3849E17A719
S315000008F0ADFAE6BCFFFFFFFFFFFFFFFF00000000B1
S31500000900FFFFFFFF96C298D84539A1F4A033EB2D1F
S31500000910817D0377F240A463E5E6BCF847422CE10B
S31500000920F2D1176BF551BF376840B6CBCE5E316B4F
S315000009305733CE2B169E0F7C4AEBE78E9B7F1AFE13
S31500000940E242E34F07B0CD5E010000000100010165
S31500000950BC2D00000040000000000400F70001006C
S315000009602532000029320000E53200008D1B000010
S31500000970BB1B00007809000000010000A10C00006C
S31500000980F90C0000230D0000410D0000850D00004C
S31500000990630B00005D0A00003B0C0000A50D000083
S315000009A0CF0D00002F0E000039100000511000007E
S315000009B069100000A1100000024870470248704705
S315000009C0024870474A43E00F6A43E00F8642E00F51
S315000009D00020704700B5E1B068461F490A6802600A
S315000009E0012100F03BF8A0BB009810F1010F2ED0BA
S315000009F04FF4C07201A900F0D5F9002101A800F05A
S31500000A00E6F940F201218842F7D040F203218842FC
S31500000A101DD19DF8040000289DF805000FD0B0B147
S31500000A2040F62800006880680299884208D25D98DE
S31500000A3000F058FA58B140F2092000F0ABFA30B194
S31500000A4004995D9800F061FA08B1002001E040F2D7
S31500000A50054061B000BD0000400800002DE9F043EC
S31500000A6099B000F0E4F86846142100F0C9FA684627
S31500000A7000F016F9039802284FF0FF3809D200203B
S31500000A8020600120A8423CBF44F82080401CF9D3D6
S31500000A905CE0A84238BF40F2045058D3FFF798FFF5
S31500000AA007460498C068C6190C2205A9384600F006
S31500000AB0CFFA00284BD10598DFF8609148451FD042
S31500000AC00C2205A9304600F0C3FA00283FD105984C
S31500000AD0484507D00020A8423CBF44F82080401C6F
S31500000AE0F9D31DE0079A05A9304600F0B1FA00F0E7
S31500000AF099F860BB079A05A9384600F0B5FA30BBED
S31500000B00079A05A9384600F0A3FA0799424605A8B0
S31500000B1000F0FAFA4249884205D0002000F01AF89F
S31500000B2040F2055013E0079810388008A84288BFA5
S31500000B302846002106E005AA02EB8102D26844F8A5
S31500000B402120491C8142F6D300F004F8002019B098
S31500000B50BDE8F08302E044F82080401CA842FAD3A6
S31500000B607047F0B599B000F062F82C480590142152
S31500000B700120069050200790684600F041FA68462A
S31500000B8000F08EF80398A84207D302280AD22068FC
S31500000B90002818BF10F1010F02D040F204503AE0CD
S31500000BA0002038E0FFF714FF06460498C06887194E
S31500000BB0112D28BF1025002006E005AA54F82010A4
S31500000BC002EB8002401CD160A842F6D34FF0FF3002
S31500000BD004E005A901EB85016D1CC860102DF8D352
S31500000BE002464C2105A800F08FFAC043189000F089
S31500000BF019F880B9502205A9384600F035FA50B9DF
S31500000C000498C168304600F04BFA20B9502205A975
S31500000C10304600F029FA19B0F0BD000039528FE1D4
S31500000C20E320BBDE0498C168384600F039BA0446B2
S31500000C300D4605A8502100F0E3B930B595B004463D
S31500000C406846142100F0DCF9684600F029F8039D97
S31500000C50022D20D3294605A8FFF700FF00281CBF58
S31500000C6040F20551884218D1002005A900E0401C39
S31500000C70A84210D251F8202012F1010F06D141F8F6
S31500000C802040294605A8FFF76CFF06E0A242EED1F8
S31500000C9040F2035001E040F2025015B030BDFEE7CD
S31500000CA010B504000CD04FF4803020600020606046
S31500000CB03B48017821724068E06000F0A5F92061A8
S31500000CC010BD70B504464FF4B87026180D46A2B094
S31500000CD0B1683068802301AA00F023F800958023CC
S31500000CE001AA214604F1240000F066FBF060B0681A
S31500000CF08030B06022B070BD10B540F2014231B113
S31500000D00274B5C68A04204D3002008604860104668
S31500000D1010BD03EBC00082680A60C068486000200E
S31500000D2010BD38B500F021F800D325E000F017F823
S31500000D3000D224E080682018BDE8384000F088B969
S31500000D4038B500F012F800D316E000F008F800D22B
S31500000D5015E080682018BDE8384000F085B903EB3F
S31500000D60C0001519C368AB4270470C4611461A46B7
S31500000D700B4B5D68A842704740F2014032BD40F21D
S31500000D80024032BD06494A68904202D340F2014011
S31500000D90704701EBC000C168806800F081B90000AF
S31500000DA08C08000030B504460D4683B0114628462F
S31500000DB000F0ECFE50B969462046FFF79DFF4FF460
S31500000DC0B870284404600199416000203EBD7FB59B
S31500000DD004460D460FF264100FC86E4686E80F00F3
S31500000DE002954FF4BA702518A86888B9686829680A
S31500000DF088420DD269462046FFF763FFA86800289F
S31500000E001CBF41F2070188420CD140F2012009E0E3
S31500000E10A01C017800291DBF4078002840F203205D
S31500000E2040F2022004B070BD012018707047F0B582
S31500000E3085B0044600208DF800000D4616460FF2D8
S31500000E400C100FC801AF87E80F00CDF804D00020C2
S31500000E5030601C21284600F0D3F84FF4BA702718EA
S31500000E6003E001A92046FFF72CFF9DF8000028B9F2
S31500000E70B86818B9786839688842F2D3207808B11A
S31500000E8060683060607828B11C2204F108012846A9
S31500000E9000F0C2FE002005B0F0BD70B504464FF468
S31500000EA082700D46221804F1BC0104F1240000F002
S31500000EB03BFA4FF4BA70261803E029462046FFF79E
S31500000EC000FFB06818B9706831688842F5D3A01C75
S31500000ED0017800291CBF4078002801D0012070BD90
S31500000EE0002070BD10B540F62802E4B01268926882
S31500000EF08A4202D200F016F808B1002003E00FF291
S31500000F005C0000F013F864B010BD10B5E4B000F05A
S31500000F1009F808B1002003E00FF2500000F006F8CF
S31500000F2064B010BD4FF4C07204A93BE70FC86C460D
S31500000F3084E80F00694604A8AFE70000000000003F
S31500000F40000000000000000000000000000000009B
S31500000F50290E0000290E0000290E000000000000E6
S31500000F6000000000000000007D32000000000000CC
S31500000F702D32000000000000000000004FF000517C
S31500000F8008804FF20F00488070470F494CF23C3002
S31500000F90088070474FF0005108804FF20F004880DC
S31500000FA00A48016821F4E06141F480610160BFF301
S31500000FB04F8F0748074A016801F4E0611143016059
S31500000FC0BFF34F8F00BFFDE70200002000500E4028
S31500000FD00CED00E00400FA054FF000504FF20F024E
S31500000FE04188914201D100887047002904BF0088DA
S31500000FF0012802D140F2022070474FF4007070477A
S31500001000002200F035BEFEE70E48704708180E496C
S3150000101088428041C00F7047002200E0121D8A42BC
S3150000102006D213181B6813F1010FF7D00020704782
S3150000103001207047002070470448006800F0010056
S31500001040704700009C080000010004001C000E40D0
S3150000105070B500F020F800B91AE03246214628465D
S3150000106000F0CAFD002070BD70B500F014F878B12C
S3150000107031462046FFF7D0FF10B940F2034070BD5D
S3150000108032462946204600F04BFE08B1002070BDCE
S3150000109040F2024070BD04460D4616463146B5E79D
S315000010A038B504460D46680501D1600502D040F208
S315000010B0044032BD2046FFF7A9FF48B1204600F0A4
S315000010C005FE04F50064B5F5006504D00028F5D1E9
S315000010D040F2024032BD0028FAD0002032BD002086
S315000010E07047FEE70A0A484000F0FF000821C307E0
S315000010F046BF044B83EA50004008491EF7D15040D2
S31500001100704700002083B8ED70B504460D461046C2
S31500001110002604E00146A05DFFF7E4FF761CAE4220
S31500001120F8D370BD30B59A423FBF9C1A456C2C1956
S31500001130412C01D3002030BD846C456C2C1904F081
S315000011403F0404448D5C2571521C446C641C9A4215
S315000011504464F1D3012030BD70B5059D00240CE038
S31500001160866C064436790E55641C866C761C06F031
S315000011703F068664466C761E4664466C0EB1AC42EB
S31500001180EED3049805E0965D0E55641C1E68761C29
S315000011901E601E68864238BFAC42F4D3AC4201D111
S315000011A0012070BD002070BD406C081870472DE905
S315000011B0F0431646044683B030680F4699460B9DA9
S315000011C0A9EB000100F0C3FCA84208D232684B46E6
S315000011D039462046FFF7A6FF68B1002038E0DDF863
S315000011E028800195CDF8009033463A464146204680
S315000011F0FFF7B2FF20B91020207041F2020027E06D
S3150000120004F1900729463A684046FFF77DFF3860AB
S315000012100C9820B1206D2A46414600F0C1FD0D987C
S3150000122038B1787978B1E06C2B464246414600F0F9
S31500001230DBFD787938B1206EE16D2818206688428A
S3150000124024BF00207871A06D2818A06541F2030024
S31500001250BDE8FE832DE9F041074607F1950486B007
S31500001260A078002814BF04250825002003900290CA
S31500001270019504A8009041F203083846FFF797FF4E
S31500001280404549D120784C3738B100F048F83868E5
S315000012902B4604AA04A900F0A7FD0C9EA17804A879
S315000012A071B141789DF8102042EA012149BA89B20C
S315000012B03160C178807840EA012040BA80B218E0F7
S315000012C08278C178120442EA0161427841EA022139
S315000012D09DF81020114331609DF816209DF81710D7
S315000012E00079120442EA01619DF8152041EA0221C3
S315000012F008437060207850B93068DFF8E0178842FC
S315000013001CBFDFF8DC17884201D000F008F87068CF
S31500001310B8600020F860404606B0BDE8F081786805
S315000013202A4604A900F03CBD70B504460020207092
S315000013306064A0640D4604F19000002101714171C2
S315000013408171C17116464FF0FF3101600020606661
S31500001350A066E066FF22182104F1700000F054FD3B
S31500001360FF22042104F1880000F04EFDFF22042133
S3150000137004F18C0000F048FDE564266500F07CFD74
S3150000138040B100F077FD10B900F072FD10B11020E9
S31500001390207007E000F06EFD00B11DB100F068FDA1
S315000013A018B116B941F20B0070BD16B1206D00F0F0
S315000013B0EDFC002070BD00002DE9F24F98B0044608
S315000013C00020049008A8229F079091469A4641F271
S315000013D0030808AD14E000F0CCFB404555D100F001
S315000013E09FFB41EA000600F0A6FB00B136BA606D2D
S315000013F0052828BF6666A06D0428ECD30920207056
S315000014000498504580F0658320781028F8D8DFE8E6
S3150000141010F013003900F5004501C301F801A701DA
S31500001420F8011200F8011200BC025D031B0333032E
S3150000143038035D03E4E7DEE700F01EFD50B199F8DE
S31500001440010099F8001051EA002003D104F190013F
S315000014500120C87100F073FB404516D10698DFF8ED
S31500001460841660650020A0650598884208BF0220A2
S31500001470C5D0002840F0B88100F05DFB002841D0BF
S315000014800320BCE700F05BFB404540F0238304F1FA
S315000014909000807920B10598DFF84416884240E034
S315000014A004F19000007900283DD004F190004079C5
S315000014B0C8BB0598DFF82C1688421CBFDFF8281633
S315000014C088421FD0DFF8241688421CBFDFF820169A
S315000014D0884217D0DFF80416884200F08180DFF8D2
S315000014E01416884213D0DFF8101688420DD0DFF8A4
S315000014F0F015884212D0DFF8041688421CBFDFF8C8
S315000015000016884200F0708140E00D2077E70E203B
S315000015102070606DE0650020206671E700F0A8FC91
S3150000152000285BD12BE000F006FB0028059830D0A0
S3150000153040F2FE21401A24D04FF20A31401A08D058
S3150000154040F2FC51401A0ED0FF3807D0FE3818D0B2
S315000015501CE0DFF89C050590072050E7DFF89C05A6
S3150000156005900A204BE7DFF87805059000F080FC2F
S31500001570002802BF04F19000407900282ED10B20EC
S315000015803DE7DFF87C050590082038E7102020703D
S3150000159031E0DFF8541588421AD0DFF8501588423A
S315000015A014D0DFF84C158842D6D0DFF830158842C3
S315000015B010D0DFF82C158842D8D0DFF840158842C5
S315000015C0CFD0DFF83C158842DED00BE0042016E7CA
S315000015D0062014E704F190004079002840F00481C9
S315000015E00F200CE71020207004F19000407910B114
S315000015F041F204006EE241F208006BE2A06D082899
S3150000160080F0628200F0AEFA082000F084FA00F062
S31500001610A6FA4045F1D1E8780006B0F1407F54D1F2
S315000016206879297941EA0026F00704D504F190018A
S315000016300120087102E000F01DFC28B900F018FC3A
S315000016400028DBD0F005D9D41020207041F20A0022
S3150000165040E2E878A97841EA002040BA80B24EF22A
S3150000166050318842BAD1A979E879090441EA006083
S31500001670697940EA01202979084300BA6066A97AA7
S31500001680E87A090441EA0060697A40EA0120297A89
S31500001690084300BAA0664FF0FF30E066A06D0C2844
S315000016A039D200F05FFA0C2000F035FA00F057FA54
S315000016B040450ED168789DF8201041EA002040BAD6
S315000016C000F47F40B0F5007FC3D01020207041F2B7
S315000016D00900FFE1E16EFF20FFF704FD0146E16628
S315000016E0FF20FFF7FFFCE0660146A878FFF7FAFC4B
S315000016F0E0660146E878FFF7F5FCE066D7F804C037
S31500001700BCF1000F07D03B68606E042208A9E047D1
S31500001710606E001D6066A06D616D884216D20498E9
S31500001720AAEB000100F013FA0428C0F00581A06DB1
S31500001730A0F10C0600F01DFA4045CAD1102EC9D002
S31500001740E26E042108A8FFF7DFFCD6E7A16EE06E83
S31500001750C943884240F02781189901204870B3E1B7
S31500001760606DA16D8142FAD20190012108A8039112
S3150000177002910090534604AA00F0F0F9404537D193
S3150000178018981C2208A9083000F046FA189901207A
S315000017904870E5E705202070A06D0828BFF430AE3C
S315000017A00120039002905346082000F0D3F94045EB
S315000017B01ED11899D34A0120087000F0B1F90843E8
S315000017C0189948602820006801689142E2D1AA79F8
S315000017D0E979C068120442EA01616A7941EA0221A4
S315000017E02A7911438142D5D01020207041F20100A0
S315000017F070E13B68A06E324608A9E047A06E30183B
S31500001800A066606DA16D8142A9D2461A0498042E85
S31500001810AAEB00012046C0F08A80FFF7C5FC042829
S31500001820C0F08A800498AAEB00000090412E014681
S3150000183028BF402600F08BF9B04203D2009900F091
S3150000184086F90646042E24BFB608B600012003908A
S315000018500290019608A80090534604AA00F07EF96B
S315000018604045C5D12078072804D1D7F808C0BCF177
S31500001870000FBED1C6F10400042E009007D2014627
S3150000188008A8FF22801900F0BFFA00988619207870
S31500001890092858D17968002955D000F0EFFA616E11
S315000018A0001D7218824221D300F1180399421DD2FD
S315000018B08346884238BF8B469A4288BF1A460192B1
S315000018C0ABEB010108AA11440091ABEB00000199B2
S315000018D0A1EB0B0200992044703000F08DF90198BD
S315000018E0A0EB0B010098FF2200F08EFA00F0CBFA75
S315000018F0616E001D884222BF7218031D9A420BD3E7
S31500001900079A8018A0EB010B0422594604F18800BF
S3150000191000F072F900F0FAF83B68606ED7F804C080
S31500001920324608A9E047606E3018606669E7FFF73F
S315000019303BFCB042BFF476AF049A53464946204674
S31500001940FFF7F0FBC5E00528F0D1F8680028EDD0D8
S31500001950E06E05280ED2311807290BD30799091D09
S31500001960A1EB000B0422594604F18C0000F044F967
S3150000197000F0CCF83B68E06ED7F80CC0324608A9F8
S31500001980E047E06E3018E0663BE7002003900290E7
S315000019905346042000F0DEF8404508D1D4F8900004
S315000019A05949884204D01020207041F2050091E088
S315000019B000F05EFA18B918990120C87003E018986B
S315000019C0C07800283AD0E06E90B100F0B4F878B94B
S315000019D0D7F80C905FEA09000AD0042204F18C01C2
S315000019E008A800F009F93B68042208A90420C847A2
S315000019F0606E00281CBF786800281FD0182204F1EA
S31500001A00700108A800F0F8F800F038FA3B68D7F83B
S31500001A100490182208A9001DC84700F034FA0500F2
S31500001A200CD0042204F1880108A800F0E5F83B6810
S31500001A30D7F80490042208A9281DC8471899012040
S31500001A4088700C20207044E0A06D10283CD200F075
S31500001A5089F8102000F05FF800F081F8404539D190
S31500001A60FEF7AEFF8021009001910123E06C09AAE8
S31500001A70022100F09AF9E7E704F19001012048718C
S31500001A8022E004F190008079F0B903900290534669
S31500001A90402000F05FF840451CD1206D00F082F92F
S31500001AA0206D10AA08A900F0FBF938B1189900209A
S31500001AB0C8701020207041F206000BE01899012032
S31500001AC0C87004F190018871012098E441F2070082
S31500001AD000E0002019B0BDE8F08F0000F70A0AF711
S31500001AE0FC0404FCEB17A603F40A0AF4F50909F54D
S31500001AF0F60808F6F90707F9FA0606FAFD0303FDE4
S31500001B00FE0101FEAD1007B0E320BBDEFF2204217B
S31500001B10584600F079B90190494608A800907047E8
S31500001B20A978E878090441EA0060697840EA01206A
S31500001B309DF82010704704F19000C079704705A801
S31500001B400090534604AA49462046FFF783BB204629
S31500001B50FFF72ABB019004AA08A800904946204630
S31500001B60FFF725BB0020039053460120029004AAEC
S31500001B70704701200390029053460420019004AA66
S31500001B8008A8009049462046FFF711BB10B5B1F5ED
S31500001B90C07F044602D240F2052010BD4FF4C0714A
S31500001BA0FFF72EFA4FF48270221804F1BC0104F1FB
S31500001BB02400BDE81040FFF7B7BB10B582B004465D
S31500001BC0009104F124002146FFF7F6FB00281CBF14
S31500001BD041F207018842C4F87C010CD1A01C0178AF
S31500001BE039B1407810B140F2032016BD40F2022010
S31500001BF016BD40F2012016BD62B38B0708D0521EF7
S31500001C0011F8013B00F8013B00F024808B07F6D168
S31500001C10830740F0208000BF103A07D330B4B1E804
S31500001C203810103AA0E83810F9D230BC530724BF58
S31500001C30B1E80810A0E8081044BF51F8043B40F88A
S31500001C40043BD20724BF31F8022B20F8022B44BFF5
S31500001C500B7803707047083A07D3B1E80810083AC2
S31500001C6040F8043B40F804CBF7D25307E4E7FEE71D
S31500001C7000B500BF130096469446103928BFA0E869
S31500001C800C50FAD85FEA417C28BF0CC048BF40F828
S31500001C90042BC90728BF20F8022B48BF00F8012BE8
S31500001CA000BDFEE7084841F67131816301684908C5
S31500001CB0490001607047044801684908490001600D
S31500001CC0002181637047000008000E4010B50446ED
S31500001CD0FFF7E8FF204600F0BEF90446FFF7EBFFEA
S31500001CE0601E8041C00F10BD10B58408800782B009
S31500001CF005D5080440F47F4040F0FF0003E041F0C2
S31500001D007F4040F47F000090FFF7CCFF0422694635
S31500001D10A00000F0DCF90446FFF7CDFF204616BD13
S31500001D202DE9F04104460E46154604F0010005F083
S31500001D300101084327D125B3A00708D536F8021BB1
S31500001D402046FFF7D1FFF0B9A41CAD1E19D0AF088D
S31500001D50FFF7A8FFBF003A463146204600F0B7F924
S31500001D608046FFF7A8FF3C197808B8F1000F06EB8C
S31500001D70400608D1E81B04D031882046FFF7B4FF9F
S31500001D8008B9012000E00020BDE8F08110B5044646
S31500001D9000F002FA00212046BDE8104000F0FFB92D
S31500001DA000F05ABA014600F090BAF8B504460D465E
S31500001DB016461F4600F0D2FB079A0699204600F009
S31500001DC0D0FB0020606284F838500C22314604F1C2
S31500001DD03900FFF711FF380C84F84500380A84F8FB
S31500001DE0460084F84770F1BD10B584B01C460292D7
S31500001DF0019100F12801009100F1380300F124025D
S31500001E00214600F000FC1FBD62F30F2262F31F4261
S31500001E10401810F0030308D0C91A1FD3DB0748BFC8
S31500001E2000F8012D28BF20F8022D130030B4144607
S31500001E301546103928BF20E93C00FAD8490728BFC3
S31500001E4020E90C0048BF40F8042D890028BF20F87F
S31500001E50022D48BF00F8012D30BC7047C91818BFC5
S31500001E6000F8012DCB0728BF00F8012D7047FEE7CB
S31500001E7001207047012070470020704740F6280077
S31500001E800068006970472820006800680349884296
S31500001E9001D12820F4E7002070470000AD1007B0FC
S31500001EA070B5A2B004000D46164618BF002D00D02E
S31500001EB016B940F2016023E00121124800F050FCFF
S31500001EC0402111A8FFF79CF8FEF776FD014611A800
S31500001ED000F0F0FEFEF772FD014619A800F0EAFEDA
S31500001EE0294601A800F0E6FE314609A800F0E2FE08
S31500001EF001A8009011AB20222146034800F0E9FE1C
S31500001F0022B070BD0015080000000F40724901E0C4
S31500001F1029B1491E714A1268D207F9D401B9CDE038
S31500001F206F49086001206F4908606C48006810F02E
S31500001F30060F05D0410700D5C3E0800700D5C3E0F2
S31500001F400020704770B51346002200293DD0A3B982
S31500001F508B423AD250F8044B634D2C605B1C08242C
S31500001F60604D2C605C4C01E06CB3641E5B4D2D68CB
S31500001F70ED07F9D4002CEBD125E0EFF3108472B60F
S31500001F80002313E0554D2D6805F01905102D04BFEB
S31500001F90544E3560514D2D682D07F3D550F8045B2E
S31500001FA0514E356010254F4E35605B1C8B42F1D388
S31500001FB004B962B6484C01E02CB1641E474800687B
S31500001FC0C007F9D40CB96FF00202104670BD2DE9B6
S31500001FD0F047044688469A4600203E49096841F083
S31500001FE001013C4B196097080025C14602E07519AE
S31500001FF009EB8609BD4217D204EB8500FFF786FF81
S31500002000010026D104EB8500C0F30A00C0F500608C
S315000020108608781BB04238BF7E1B5246314648467A
S31500002020FFF790FF0100E2D02168D8F80020914226
S3150000203009D02046FFF76AFF010004D1524601216C
S315000020404046FFF77FFF2349096849084900214AAE
S315000020501160BDE8F08720491E4A126842F001026D
S315000020601C4B1A601E4A106001201E4A10601B4855
S315000020700068400704D5186840084000186020E052
S3150000208016480068800704D51868400840001860A4
S315000020901AE00220106001E029B1491E0F480068CD
S315000020A0C007F9D421B9186840084000186005E057
S315000020B01868400840001860002070476FF0020062
S315000020C070474FF0FF3070476FF0010070470023F4
S315000020D07DE7000008000E40809698001C000E4028
S315000020E010000E400C000E4018000E40426822F40C
S315000020F0406211434160704710B54A688B68CC68EE
S315000021000968016002600360046010BD10B50268D2
S315000021100368046800680A604B608C60C86010BD84
S3150000212038B504460D46FFF7E7FF05F110011BE041
S3150000213038B504460D46FFF7E9FF05F110012046C4
S31500002140BDE83440E2E738B504460D46FFF7D4FF54
S3150000215005F110012046FFF7CFFF05F120012046CB
S31500002160FFF7CAFF05F130012046BDE83440C3E75A
S3150000217010B588B00C4614F0030108D06946FFF785
S31500002180D7FF202269462046FFF736FD02E02146AA
S31500002190FFF7CEFF08B010BD6C21FEF731BF79B94D
S315000021A0724A0260724A4260724A8260724AC26031
S315000021B0724A0261724A4261724A8261724A0EE052
S315000021C0724A0260724A4260724A8260724AC26011
S315000021D0724A0261724A4261724A8261724AC261FD
S315000021E000220262426281660020704730B591B0DB
S315000021F004460D4600F0B3F86C486D4908600021AE
S315000022006B48FFF773FF10206A49086000206A498F
S3150000221008606A486A4908606A486B49086021464E
S315000022206A48FFF77DFF15F0030009D040222946D2
S315000022306846FFF7E1FC69466548FFF784FF03E05F
S3150000224029466348FFF77FFF21466048FFF770FF86
S3150000225000F07EF811B030BD2DE9F04104460D4680
S31500002260160030D094F8200000F03F07C7F1400870
S31500002270206A30182062B04202D2606A401C606256
S31500002280B7B1464514D34246E0192830FFF7B4FCEF
S3150000229004F128012046FFF7A9FF4544A6EB0806EE
S315000022A0002705E029462046FFF7A0FF4035403EBF
S315000022B0402EF7D23EB132462946E0192830BDE815
S315000022C0F041FFF799BCBDE8F08130B583B0044614
S315000022D00D46206A616AC90041EA5071C0000A0EC3
S315000022E08DF800200A0C8DF801200A0A8DF80220CC
S315000022F08DF80310010E8DF80410010C8DF80510F1
S31500002300010A8DF806108DF8070094F8200000F0F9
S315000023103F00382834BFC0F13802C0F178022D4999
S315000023202046FFF799FF082269462046FFF794FFEB
S3150000233000F015F829462848FFF71AFF00F008F8BC
S31500002340A06E20B1042105F11C0000F0D7FD37BDB9
S315000023502248006820F002002049086070471F48A4
S31500002360006840F002001D490860704767E6096A88
S3150000237085AE67BB72F36E3C3AF54FA57F520E51A0
S315000023808C68059BABD9831F19CDE05BD89E05C130
S3150000239007D57C3617DD703039590EF7310BC0FF83
S315000023A011155868A78FF964A44FFABE04001030BF
S315000023B000000F4030000F4034000F407081C8729B
S315000023C050000F40070D010054000F4000010F4060
S315000023D0A4010F404408000030010F40B0400E40F9
S315000023E000F1C0600160704700F1806001607047D5
S315000023F010B54A688B68CC680968016002600360A2
S31500002400046010BD10B502680368046800680A60BD
S315000024104B608C60C86010BDEAE7F3E738B5044648
S315000024200D46FFF7E5FF05F110012046BDE83440F3
S31500002430DEE71FB5044611F0030008D010226846F7
S31500002440FFF7DAFB69462046FFF7E6FF1FBD204689
S31500002450FFF7E2FF1FBD1FB50C4614F0030108D0BD
S315000024606946FFF7DAFF102269462046FFF7C4FBEC
S315000024701FBD2146FFF7D1FF1FBD10B5041D006823
S31500002480802803D0B0F5807F05D00AE000F00EF872
S3150000249000F030F803E000F005F800F027F800201F
S315000024A010BD20E00121DFF8580299E70121DFF88D
S315000024B0500299E710B5041D0068802803D0B0F5D6
S315000024C0807F05D00FE0FFF7F1FF00F013F803E07F
S315000024D0FFF7E8FF00F00AF8DFF82802DFF8281215
S315000024E00860002010BD6FF01F0010BD2146DFF808
S315000024F01C0293E72068DFF818120860606808601D
S31500002500A0680860E068086070472DE9F8438846CF
S315000025101546994607091020DFF8F8110860089C4F
S31500002520099E15E02EB127B9102229463046FFF73D
S3150000253063FB29464046FFF77CFF4FF40070DFF847
S31500002540D811086021464846FFF785FF103410353C
S315000025503846471E0028E5D1BDE8F1832421FEF761
S315000025604FBD80B5802A18BFB2F5807F00D000E04D
S3150000257002E06FF01F0002BD40F8042BD208FFF7FF
S315000025803BFB002002BD70B5064614461D46DFF82B
S315000025908C01006840F00200DFF880211060002006
S315000025A0DFF85C211060DFF878211060DFF8642125
S315000025B01060DFF870211060012908D100F019F8C9
S315000025C03046FFF75AFF06000FD1052007E03046D8
S315000025D0FFF770FF060008D100F00BF806204E4901
S315000025E0086029465048FFF736FF00F005F83046E8
S315000025F070BD21464C481CE74848006820F00200A0
S315000026004649086070472DE9F04F83B081468A46F7
S3150000261016461F46DDF834800E9C1AF00F0F04D1C3
S31500002620002E1CBF3068002828D03568DDF830B091
S315000026301DE095B95B463A4600F04DF81020391872
S3150000264011F8011C491C3A1802F8011C391811F836
S31500002650011C11B9401E0128F1DA18F8010B1BF80C
S315000026600510484004F8010B681C00F00F055FEAEE
S315000026700A00A0F1010ADCD1356022E000F02EF854
S3150000268005001BD14FF44041FFF711FF4FF44041C5
S31500002690FFF709FF39462648FFF7CBFE26481A49B9
S315000026A008605120234900F00EF842461F49504663
S315000026B0FFF72BFF39461E48FFF7CDFEFFF79CFFBD
S315000026C02846BDE8FE8F0860002001900094164B56
S315000026D07047334632460121484654E70F480068A2
S315000026E040F002000D4908600020054908600C49C9
S315000026F00860084908600B4908604846BDE60000C6
S3150000270000000F40058C010050000F4010010F40E3
S3150000271024000F4030000F4008000F40B0400E402C
S3150000272004000F4034000F4080000F4088000F4027
S3150000273084000F4054000F4048054603890001EB12
S31500002740401000F1844002607047DFF88410096889
S31500002750C90704D4DFF87C1009680142FAD1704732
S3150000276070B50C460021021202F00F02521E092A11
S3150000277014D8DFE802F005171313141A1E132227C4
S31500002780DFF84850C0F3043611B10846FFF7DDFF05
S31500002790224631462846BDE87040CFE770BDDFF8D7
S315000027A03850EFE7DFF83450ECE7DFF8345001211A
S315000027B0E8E7DFF830501021E4E7DFF82C504FF45B
S315000027C08031DFE7DFF82450DCE7000000400E40F0
S315000027D044410E4040410E40B0400E40C0400E40C5
S315000027E0E0400E40E8400E40F0400E4050410E40A2
S315000027F0426822F4407202E0426822F440621143C9
S315000028004160704710B54A688B68CC6809680160FA
S3150000281002600360046010BD10B5026803680468B6
S3150000282000680A604B608C60C86010BD38B504460D
S315000028300D46FFF7E7FF05F110012046BDE83440DD
S31500002840E0E738B504460D46FFF7E6FF05F110014F
S315000028502046BDE83440DFE7DFF808168C225043F7
S315000028600844007A7047DFF8FC158C225043084470
S31500002870407A704710B500F00DF800F10C0104E045
S3150000288010B500F007F800F12C011846BDE810401D
S31500002890FFF7B2B90B462022DFF8C8158C24604337
S315000028A008447047DFF8BC158C22504308444C306E
S315000028B0704738B50446154600F0F1F829464FF43E
S315000028C0867000F023F9DFF8A00520650120606519
S315000028D06069000E00F0010080F0010032BDF0B525
S315000028E089B004460D4617461E4605F1400100F024
S315000028F00BF939464FF4867000F008F907F120010C
S315000029004FF4887000F002F900F0C7F9294600F08C
S31500002910FBF805F1200100F0C2F805F140014FF483
S31500002920887000F0F3F8DFF844052065DFF840050D
S3150000293060650120A06500F0ABF869464FF484702D
S3150000294000F0A4F829464FF4867000F0DFF8DFF8AF
S3150000295024052065DFF820056065DFF82005A06501
S315000029600120E06500F0CEF8DFF814052065DFF8F9
S31500002970140560650120A06531464FF4847000F0AF
S315000029808BF8694600F00EF8DFF8FC042065DFF8E6
S31500002990FC0460650120A06506F1200100F07AF8CC
S315000029A009B0F0BD4FF4827020443FE770B598B08F
S315000029B004460D46164600F0A5F8DFF8D404206557
S315000029C0DFF8D0046065DFF8D004A06508A900F040
S315000029D05BF829464FF4807000F098F8DFF8BC04E5
S315000029E02065DFF8BC0460654FF48670A06510A909
S315000029F000F04CF8694600F047F805F1400100F098
S31500002A0083F8DFF8A00420650120606500F046F831
S31500002A10DFF894042065DFF894046065DFF890041D
S31500002A20A0650120E065694600F064FA10A94FF43C
S31500002A308670FFF7B9FFDFF87C042065DFF87804BD
S31500002A406065DFF87804A06531464FF4887000F0C1
S31500002A5023F800F057F805F1400100F020F808A926
S31500002A604FF48670FFF7A0FFDFF854042065DFF807
S31500002A705404606500F00CF806F120014FF48670EE
S31500002A8000F00AF818B070BD4FF480702044D8E604
S31500002A9006F140014FF480702044D2E629464FF4F7
S31500002AA084702044C2E6F8B504460E4617461D4615
S31500002AB020212846FEF7A4FA0120286039464FF463
S31500002AC0807000F023F8314600F01EF8FFF7E6FFAD
S31500002AD0DFF8F40320650BE0DFF8F0032065DFF88C
S31500002AE0F0036065DFF8EC03A065DFF8EC03E06552
S31500002AF06069C001F0D529464FF484702044BDE8D2
S31500002B00F4409EE605F120014FF4827020448DE6E4
S31500002B1050F8043B934203D007E050F8042B22B947
S31500002B20091F0129F9DA01207047002070472DE9B5
S31500002B30F04188B004460F4615469846202168465F
S31500002B40FEF75EFA012000900E9E20213046FEF729
S31500002B5057FA202106F12000FEF752FA202106F14D
S31500002B604000FEF74DFA3846FFF776FE00F09EF875
S31500002B7000F08EF8DFF8EC028C2111FB07F1084417
S31500002B804068471E00E07F1E012F16DB00F03EF86E
S31500002B90F9D512E0202229463046FFF73DF82022DB
S31500002BA005F1200106F12000FFF736F820226946DC
S31500002BB006F14000FFF730F87F1E002F23D432467F
S31500002BC031462046FFF7F2FE00F020F8F4D5002249
S31500002BD020213046FFF79CFF70B10022202106F12C
S31500002BE02000FFF795FF38B10022202106F14000B2
S31500002BF0FFF78EFF0028CDD133462A4631462046C0
S31500002C00FFF76DFED8E708B0BDE8F081381107EB95
S31500002C10D060401158F82000391107EBD1614911F5
S31500002C20A7EB4111C840C0077047F0B591B0044604
S31500002C300F4615461E463846FFF70EFE00F036F8DC
S31500002C4000F026F869463846FFF714FE08AB6A46D8
S31500002C5005F140012046FFF726FF08A9FFF7A2FE6F
S31500002C6029464FF48670FFF751FF05F120014FF416
S31500002C708870FFF74BFF00F010F806F12001FFF710
S31500002C8009FF31464FF48670FFF706FF11B0F0BD1D
S31500002C90002020602063606370477D4820658F4870
S31500002CA060658F48A0650120E065704701462046B3
S31500002CB000F028B938B504460D462021FEF7A0F9E4
S31500002CC0FFE71F20295C42422244D177401EF9D5F6
S31500002CD031BD2DE9F041BAB004460D0016469846BE
S31500002CE018BFB8F1000F03D0409F0FB1012E02DAD2
S31500002CF040F20160B2E0FFF7CBFF606840F01000E1
S31500002D0060600020FFF7AFFDFFF7D0FF4FF40061D2
S31500002D102046FFF771FD4FF400712046FFF768FD6E
S31500002D2009A90020FFF7ACFD09AA39462046FFF79E
S31500002D30C0FD30B909AA07F120012046FFF7B9FD09
S31500002D4010B140F2026089E0212EA8BF2026202182
S31500002D5011A8FEF755F900201AE001A9321A521EF1
S31500002D60920801EB820101AA331A5B1E9B0802EB53
S31500002D708302126C2B5CA6F1010CACEB000C4FEA43
S31500002D80CC0C0CF0180C03FA0CF31A430A64401C22
S31500002D90B042E2DB11A900F0ADF85248206511A956
S31500002DA0FFF772FE19AB09AA07F120012046FFF7CB
S31500002DB07AFE19A9FFF7F6FD11A94FF48870FFF7FF
S31500002DC0F3FD39464FF48670FFF7A0FE46482065AE
S31500002DD04648606511A94FF48870FFF757FE19A998
S31500002DE0FFF752FE0020FFF75DFD024621A8009086
S31500002DF011AB00212046FFF79AFE01A8009019ABFF
S31500002E00424600212046FFF792FE21AB21AA00216F
S31500002E102046FFF70AFF01AB21AA01A92046FFF7CA
S31500002E205EFD01AB01AA00212046FFF7FEFE002051
S31500002E30FFF719FDFFF73AFF01A900F05BF83946E5
S31500002E404FF48670FFF762FE2948206522486065C8
S31500002E506069C0014CBF002040F204603AB0BDE892
S31500002E60F0810000B80800003035DA10D01482CBAB
S31500002E701481E11C8CE11C811C84D91C8391D11C1A
S31500002E80E014D8141482E11C84D31482D11CE014FB
S31500002E908AD11C81821CC00C0C0C0100C00C0C8356
S31500002EA0D91C83D88AD11C83DA0C811482D11C8167
S31500002EB0C80C0C818CE11CD01484E31482D11C0153
S31500002EC0D81483D11CC00C0139398401D02484FC68
S31500002ED01C82FED88B1C81A039380100D91C83D1F5
S31500002EE01C81E11C30D00C0130E11C8430D91C015E
S31500002EF03035DA144FF48470204497E40022FEF74C
S31500002F0087BFFEE742685209042909D94B1F022BE5
S31500002F1009D9DB1E032B03D91B1F022B03D97047CC
S31500002F2041EA421103E041EA421141F010014160D9
S31500002F307047FEE700F1C0600160704700F18060F5
S31500002F4001607047012202FA01F12A4A30235843F0
S31500002F5010440C30F2E7012202FA01F1254A30232F
S31500002F60584310440C30E5E7F8B504460D461646BE
S31500002F701F46300007D0002F204602D0FFF7EBFF98
S31500002F8001E0FFF7DFFF082D1A480DD2302111FBB3
S31500002F9004F1084440680F21AA0091408843A90023
S31500002FA000F01FF8486010E0302111FB04F10844DE
S31500002FB080680F21A5F10802920091408843A5F18F
S31500002FC00801890000F00DF888604EB9002F2946E7
S31500002FD0204602D0BDE8F440BDE7BDE8F440B1E7C5
S31500002FE0F1BD06FA01F108430249302212FB04F250
S31500002FF01144704700A000400D4909680D4A126847
S31500003000890001F03C01C2F3811211438170094924
S31500003010096801F03F01417007490968074A1268CB
S3150000302001F0F001C2F30312114301707047000072
S31500003030E4FF0FE0E0FF0FE0E8FF0FE0ECFF0FE03A
S31500003040890001EB401000F1844002607047684837
S315000030500068000E704710B582B0FFF7F8FF04460F
S315000030606846FFF7C9FF8F2C12DA6248006840F005
S315000030700401604A116000214FF050125E4B30246B
S315000030804C431A51491C0629F9D35A49086001E0F4
S31500003090902C07DA59480068C009C00140F02000AA
S315000030A0564908609DF80100012805D1544800687A
S315000030B040F004005249086000220D215148FFF7F4
S315000030C0BFFF13BD4FF40170FDF764FF00BF82B070
S315000030D04D4800684D490860FFF7BDFF00F0A2F8B3
S315000030E0FDF753FFFDF776FC10B940F201200EE024
S315000030F040F205418842464800900DD102E0009812
S31500003100401E009000980128F9DA40F20320FDF7EE
S3150000311041FF0098401E009000980128F9DA4FF40C
S315000031200170F4E738B5012401253A480068B0F586
S31500003130803F08BF002504D000F046F808B10024FF
S31500003140002501213448FFF70BFB002304220C2144
S315000031500320FFF709FF002304220D210320FFF7B8
S3150000316003FF012304220E210320FFF7FDFE0123A6
S31500003170042205210020FFF7F7FE44F20400006850
S3150000318010F1010F06D14FF40270BDE83240FDF791
S31500003190F5BE31BD2DB14FF4804000F0A3F8040018
S315000031A0F1D0002CF5D04FF480401C49086000F0A7
S315000031B001F800BF02461046016881F3088881F3D2
S315000031C0098840688746FEE780B5124800684005D2
S315000031D00CD5FDF701FF40F20221401A04D0C01EB3
S315000031E002D0C01E012801D8012002BD002002BD68
S315000031F0FC81E00FB0400E4000A000402C400E4085
S3150000320064310E4054300E408400002080000020BF
S315000032108096980004500E400025080008ED00E056
S3150000322001207047FDF706BFFDF759BF2DE9F041B4
S31500003230044640F6280088460068016916468C4216
S3150000324022BF37194069B84216D3E00AB4EBC02052
S3150000325004BF2046FEF73AFD04F50060C50AED02FC
S3150000326004E02846FEF732FD05F50065BD42F8D3B9
S3150000327032464146204631E0BDE8F0812DE9F04175
S315000032808846282115460968394B0A689A4223D18F
S315000032900969461840F62801AF1909684A69BA4211
S315000032A01AD310B90869FEF711FDF00AB6EBC02073
S315000032B004BF3046FEF70AFD06F50060C40AE402C4
S315000032C004E02046FEF702FD04F50064BC42F8D394
S315000032D02A464146304601E0BDE8F081BDE8F041AE
S315000032E0FEF71EBD7FB5044668460FF20011102298
S315000032F0FEF792FC22686068616B02F16042B2F5EB
S31500003300F84F2BD840F628052A681269904225D333
S31500003310184B984222D202F1400081420E4601D358
S31500003320994205D3FFF77CFF401E8041C00F1CE089
S31500003330FFF776FFA0B900F053F8A8B9706998B105
S3150000334002280DD12868B1690069091D4FF0FF32C6
S31500003350091AFDF7D9FE0849884205D0002004E085
S31500003360204600F00BF800E0012004B070BD00001C
S31500003370AD1007B001000400E320BBDE50B59FB0DE
S31500003380044668460FF274011022FEF745FC666B90
S3150000339000F026F818B97069012809D1B66940F617
S315000033A0280000680069864202D3B6F5802F01D94D
S315000033B0002013E004A8FEF7E9FC321B214604A80E
S315000033C0FEF7EEFC04A8FEF7EDFC06F120023146FE
S315000033D004A8FEF765FD401E8041C00F1FB050BD1A
S315000033E010226946304600F011B8000013B779FA8A
S315000033F0C925DDB7ADF3CFE0F1B614B813B779FA46
S31500003400C925DDB7ADF3CFE0F1B614B8030000204F
S3150000341013F0030F09D0521E22BF13F8010B11F847
S3150000342001CBB0EB0C00F3D07047121F22BF53F84C
S31500003430040B51F804CB6045F7D0121D0AD200BA2E
S315000034409CFA8CFCB0EB0C0038BF6FF0000088BF14
S3150000345001207047521E22BF13F8010B11F801CB51
S31500003460B0EB0C00F6D0521C08BF104670470000A7
S315000034700F48006840F470000D4908600D48006868
S3150000348040F400500B4908600B4800688008800033
S315000034900949086009480068400840000749086073
S315000034A00748006820F08050054908607047000012
S315000034B088ED00E054300E4040300E4074300E402F
S315000034C060300E404EF68851CEF20001086840F496
S315000034D070000860BFF34F8FBFF36F8F4FF000701F
S315000034E0E1EE100A7047000000F00BF8002801D04A
S315000034F000F00AF80020AFF30080FFF7E8FD00F0C7
S3150000350017F801207047000010B5074979441831B3
S31500003510064C7C44163404E00A68081D11448847AA
S315000035200146A142F8D110BD7800000088000000D5
S3150000353000F000B80746384600F002F8FBE7000046
S315000035402021090326311820ABBEF9E7C0EA210184
S31500003550C0EA210180B5FFF78BFFFFF7E3FDBDE869
S31500003560014000F000B8AFF30080FFF7ABFFFFF7B4
S31500003570BBFF10B450F8041B79B1026843680244DB
S315000035800830DC0744BFA9F10104E31852F8044BE4
S3150000359043F8044B091FF9D1ECE710BC7047000053
S315000035A0D3FFFFFF08000000A4FFFFFF80000020FC
S30D000035B000000000000000000D
S3150000400000480020F30D020067720000CF7900001F
S31500004010A70A000100410000000000800000000027
S31500004020C335E1AC00000000000000000000000005
S31500004030000000008857000000000000000000009B
S3150000404000000000206D73B10000000000000000B9
S3150000405000000000FFFFFFFF00000000000000005E
S31500004060000000000000000000000000000000004A
S31500004070000000000000000000000000000000003A
S31500004080000000000000000000000000000000002A
S31500004090000000000000000000000000000000001A
S315000040A0000000000000000000000000000000000A
S315000040B000000000000000000000000000000000FA
S315000040C000000000000000000000000000000000EA
S315000040D000000000000000000000000000000000DA
S315000040E000000000000000000000000000000000CA
S315000040F000000000000000000000000000000000BA
S3150000410000480020F30D020067720000CF7900001E
S31500004110937A00006F890000B38900000000000058
S31500004120000000000000000000000000B79D000035
S31500004130EF9F00000000000037A200001FCE000025
S31500004140C19E0100676301005BDA00006F63010036
S31500004150B16301008F6301008D630100A963010053
S315000041600FE500002FF100009BF20000EB190100A3
S315000041706323010067230100172F0100AB2F010005
S31500004180EF3401008B3E01005351010073510100D1
S315000041908F6101001B7401002F840100BBDF010049
S315000041A0CFE1010067F7010063F90100996301009F
S315000041B0A163010083F90100E3FE01004F0902003B
S315000041C01FF901000D0E02000000000000000000B3
S315000041D000000000000000000000000000000000D9
S315000041E000000000000000000000000000000000C9
S315000041F000000000000000000000000000000000B9
S3150000420002986003029866030298E60502980A027D
S3150000421002987E0302988C0302987E03029800049B
S315000042200298D0040298F60402982A0502983805E6
S3150000423002989E050298D0050763076301DB0A71A1
S3150000424090B9637902982203076300B902EC00CDA6
S31500004250114502EC00CC411103B804D91E72073196
S31500004260911210DA087102DD1272147002B807603A
S3150000427006987C0E3038087208B80298700602EC70
S3150000428000CA05B801DB127120DA0E7110DAEC7281
S3150000429001DA0A71ADB80A7023DAE07202EC00C8DE
S315000042A007689111173111402111C03111400119D0
S315000042B090B820DA04716178411108D904716278E6
S315000042C020D904726378273123DD0872C0DA0471BD
S315000042D0607803B8411107310872A11508359C7141
S315000042E002DD2872A11108D9927102D91E72CCDAA8
S315000042F08A7206B802DB0C71026D5111FFD9527237
S315000043000765054D4C720298220321114049C0D918
S315000043103E71A0314115403501655141036108DA0E
S31500004320207204DA2A721049A1150235067108DBDB
S31500004330107201340C71076B80DB147190B86778CA
S3150000434000C00D0F0C0D06987E0E01D8087207B836
S3150000435002987006CC32204A00C00517085006980D
S315000043607E0E113001420DDA6271208800C1C61836
S31500004370000020BB04DA0E7208DA087242B903693B
S31500004380F823E8233114056B01DA06710649024B5E
S31500004390076B076B00C0580F00213810BC2002DAEB
S315000043A0107100B9FF21A11380DB06717CB9076982
S315000043B018100298A60200C3040F0021341080D8FA
S315000043C04671EFBA0698C20C00920362DDDA987263
S315000043D0A11101D9327100C23810084024120423F9
S315000043E0281302EC00C804D9167104BA18300871F3
S315000043F00060FD20012A02EC00C8FF22FA7604DCE8
S31500004400067218B87378029822030698D00700B887
S31500004410011A91101730011900C202020000069815
S31500004420900604D9067101B802A800C0040F002145
S31500004430041380DB06710298380001DB607100C24C
S31500004440600F002124111114FF3402EC00C8FF2470
S31500004450FA7607611138076106988C0E0761111408
S315000044600111411006988C0E01D8087203B8029803
S315000044707006042202DB16712410112811280698F2
S31500004480A00E00C418000840FF200814FA222410C9
S315000044900760076006988C0E01D8087120BC10DBF7
S315000044A006720298220300BB00C1580F00211415A2
S315000044B0511207620762C021112CFF320E7140882B
S315000044C0511406982C034143009441115112076A76
S315000044D0FF320E715114076406982C03076C414392
S315000044E000C15C0F00211410013BB82114113110DA
S315000044F0FF300C7104610112006001DAF8713110AD
S315000045000760FF300C7100610112006001DAF8717A
S3150000451001D90C7288B8787804B8029870060298A7
S31500004520B6010698C00C00B8477800F83088508865
S31500004530FF34087102ECFF24F87002EC00CD141071
S3150000454001BB5150FFD8047131440760006B10DB8A
S31500004550F2710421FF22E4720F4C0095009300A033
S315000045600698D00700F80698D00700C5980F0021D6
S3150000457054150698380900C59C0F002100F80698C6
S31500004580D0070698860B0698C40A00F80698D00746
S3150000459010B902BA0698920600C59C0F002100F8D1
S315000045A09112033288B903DE44727179A11020D8C2
S315000045B00A710698380900B9587000C3040F002123
S315000045C0341380DB1C7100C3A8100840A1141034FA
S315000045D0024C481300BC481391140764FF34481377
S315000045E08CBB627B40D80871517900BA7079076A32
S315000045F000C0A000084006985E0E042002985E0ED9
S315000046000698D00700BD06983E0810B903DC047171
S3150000461000B902BA0698920604D9067101D840710B
S31500004620811008D8107106983E0803DC087218B885
S31500004630717826700698B004FFD80C7288B847784F
S3150000464000B844783E70911010D80E7100BB00C4BB
S315000046506C5008400698CC0620B802A800F800C0A6
S31500004660040F0021041320DB1A71911010D8087171
S315000046708CB844789C7008DB9872A11308DB9272A0
S3150000468003BD0698A4040698860B00C5A00F00215A
S3150000469006983E0803DC0472042554150698C009E2
S315000046A00298E80C9110015503355150011900A0EC
S315000046B001B8811180D9187100C10C50084014103E
S315000046C004300C7200C1A45008401410013000A040
S315000046D00698D0070698860B00BD0698A40488B8ED
S315000046E0477800B8447800C5A80F002154150698ED
S315000046F0C0090298E80C0698D0070698B004FFD8BF
S31500004700067208B8607800C2000002020698900699
S3150000471000F806986A0E88B850785178911104D935
S31500004720047248788CB8427800A00698D00706989C
S3150000473012050698C40A00F80698D00706983E089F
S3150000474007DC0A7200C59C0F002100F80698C40A0F
S3150000475003B9911004D8047100B900C20000020028
S315000047600698920601D8207200C0040F0021041199
S3150000477020D91471076101D9E0728110076001D850
S31500004780D8728CB864780698120500C5AC0F002163
S3150000479054150698380900C5B00F002100F8069890
S315000047A0D007811108D90C7118B8717820B802A801
S315000047B000F80698120500BD0698A40488B8477844
S315000047C000B8447800C5B40F002154150298E80CCF
S315000047D00698D00706980C0E0698860B0698C40A0B
S315000047E00698120500F8B110076001D80A7108B8DA
S315000047F07F78020C7E780698D00701F8911010D8C1
S31500004800367100C00C0F0021041000C590500840FE
S315000048105411A0255412E82554151159112D067668
S315000048200122212D012DDC7518B875788CB84478D5
S3150000483001B802A800F8B110076810D8307100C09E
S315000048404810084000C300000840311460242824A2
S3150000485044113411076101D9FA7144122810076214
S3150000486028100762281007622810E8700298AA0B21
S315000048700698FE0800C024000840207800F888BA90
S31500004880727A811204DAFC7200A088BA527A00A009
S3150000489018700698D60810D906710CDB087200B895
S315000048A0103C067201B8076A00BB00C1100F002158
S315000048B000C4B4500840141120391272417B007CA8
S315000048C0B82400C200000101281400A006987E0644
S315000048D000C2040F0021241240DA0672617B007CBC
S315000048E002988A06B11001D8047200A000C0287090
S315000048F008400411108800C1001800401810442018
S3150000490004111088A820041110884CBA757A181062
S315000049103DB11088F4B8427844207278D820737874
S31500004920E82073784FB200C4FFFF8080413A4FAA57
S3150000493001BC01644113076300C06C70084003B9F1
S3150000494018100110011001B9181001100110011002
S31500004950011098200411076101B80160003A047142
S31500004960044904D9047241520760003A04710849A7
S3150000497008D9047231520460003B0E720063006471
S31500004980314241424FAAB2704FAA44B801685378E7
S31500004990F8B853784020527800913DA9009100C0A4
S315000049A01470084018100091582018100091BC206F
S315000049B0181000A04024066400C0FFFF0000013C60
S315000049C01DB002200158402806751EAC01EC00A05F
S315000049D0009000C6BC0F0021008801B0076800C324
S315000049E0680F00213414036C41500F3041500813F6
S315000049F00F3003640F340111C04806984C0806981E
S31500004A008A0603DD0C7214BA102328130298EA08EA
S31500004A1009DD06720298EA08411303DF067202985E
S31500004A20160C00DD06720698B40C53B080BB006B02
S31500004A3030380A7109DD06710298D80C00A000C052
S31500004A40680F0021041003600F3000A01088B11118
S31500004A50076980D90A7100C18000084008110091D9
S31500004A6000A0B111076940D906720298D20800C1A8
S31500004A70700F0021141200BC01DC20710698D608C4
S31500004A804034087101B806980609F0DA0C720CDB9E
S31500004A90087102B80698060948BC00C380000840A1
S31500004AA0FFB801200421141551450871014558131A
S31500004AB0082400C138300840141100C500600840C1
S31500004AC054153035016D5141014118130142281327
S31500004AD0481300B82A7000C46000084000C06C0F7C
S31500004AE0002144140410014400A000C06C0F0021F2
S31500004AF000B906987E06181006988A0600A000C11E
S31500004B00700F0021141203682150F0300152281151
S31500004B1000A000C020300E40041104101050F472A2
S31500004B2000A000C028400E400413315107610C312B
S31500004B3007691153381000A00698D80A00C0F80F6C
S31500004B40002104112EA9217A227A00C0940F002197
S31500004B501DB118100698EA090111FF300769FF31E7
S31500004B6051B30DBC415C413B115900290475084BFA
S31500004B7051ABA4BB00C040300E40041103310149C3
S31500004B802872B112076207623020041121510F31D9
S31500004B9018726E7B6F7BF02004114CBA7C7A181069
S31500004BA014200411607A1810B11002D81071707BAD
S31500004BB030B8627860780DB001D8FC7102980A0BA3
S31500004BC00698D80A00C0FC0F002104112EA9F8206F
S31500004BD0041106982209217A237A0698EA0900C068
S31500004BE0840F00211DB1181000A0511400C0B80F89
S31500004BF000210410012C0A7500B826A80698B407EF
S31500004C0000C0800F00211DB1181028B000C1F0FFB0
S31500004C10FFFF11380EB9114028A880B800C14430F2
S31500004C20084008116FB8076826A8217A050C2110DC
S31500004C302020267800C063EF000026A8050C20EC93
S31500004C40247A20EC217A184826A828B00AB90151FE
S31500004C500F31115028A8050C207A20EC0F0C98B8BB
S31500004C6046784178B11020D8467100C04C300840D3
S31500004C707DB918100D0E0D0E00C0703008400411DD
S31500004C8030311A7100C07830084025782478960CA7
S31500004C9000C07030084004113031EA7200C04C3058
S31500004CA0084000C106000000181000B91810069848
S31500004CB0120900C27C0F002124100151FF3111504E
S31500004CC0081200A00698D80A00B826A800C0880FC7
S31500004CD000211DB1181000A030B840780DB101D9DF
S31500004CE0FC72427800C074300E4004114CBA407A0F
S31500004CF01810EC2004115C7A1810A4BB707B4E7B54
S31500004D004F7B00C20430084000A008B86E780EB889
S31500004D104EB110D910723EA8140C00C00F0000004E
S31500004D203EA8147044A8140C00C00100000000C185
S31500004D30B0300E40081100C077801F003DB201421E
S31500004D403DAA00C1E80F0021141054A8140C00C09D
S31500004D5077E01F0001423DAA51B801687D7808B886
S31500004D607E7806987E060698E40606988A0651140A
S31500004D700698B407F4B845780A0C00C0900F0021D5
S31500004D801DB1181000A051B801685D7800B844A89C
S31500004D903EA800C1B0300E40081110B807683DB1FA
S31500004DA001393DA908B86F7800A001F8541000DC5D
S31500004DB0127101140698B40718B8707800B84178D3
S31500004DC000F80298C60B00C57C0F0021541551143B
S31500004DD0FF3507644113FF3407633112FF3307625F
S31500004DE0FF323110212B0158012A06981209015869
S31500004DF05128047501584128187551B00CD8067110
S31500004E00215806703110115901290675FF0FB87027
S31500004E1018B8727800F800C3780F0021341300C464
S31500004E20E0100840441201B80768013A2C710824C2
S31500004E302814084B811040D80A7200C45810084044
S31500004E40237C00C4700F00214414F0345E7200C449
S31500004E5064000840257C547004DBDA720DDDD471E1
S31500004E60A0244412FF32C222CA76811040D814729E
S31500004E7000C1401008401410F821141101581128DF
S31500004E802A7100C178100840081107600F3091128E
S31500004E903032214000C200600840241210DA04714A
S31500004EA040480811076207622811308800B8069842
S31500004EB06208009300C0780F002100B9181000A006
S31500004EC0EBBA00C0780F00210411113A10D906710F
S31500004ED018B97479281000A006980C0E115106987E
S31500004EE0220901B80298620864BC066C415C512C28
S31500004EF00698B40750880698A0030095B110076875
S31500004F0020D80C7108B8657818B8717800F808B818
S31500004F106C7820B85A7859785B7800C1EC0F00217C
S31500004F20141054A84EB010D806710298800D4DB1D9
S31500004F3000C09FFFFFFF113840B102D914726048CC
S31500004F4000C1040000401112104A04BB41540C7009
S31500004F50204802B903BA02BB02BC4DA840A9F8B862
S31500004F607078190C3EB141413EA9F4B97379737852
S31500004F70717800C1E40F002100C400410840287088
S31500004F8000C20000010044AA230C00C200000B006E
S31500004F9044AA00C1E40F002100C22000004000C462
S31500004FA01841084004BB00C0C83F00001411113866
S31500004FB021400814050C1140081404240F0C2FABD3
S31500004FC0050CB11008D810711CB879787B7820B818
S31500004FD079787B78607CF424411351140698B407E1
S31500004FE0727B53B80168050C687840EC00C08C0FE2
S31500004FF000211DB1181000F800C0686008400411B7
S315000050000761076180D9047240EC00A0015053A8E3
S315000050100698F80D4EB010D80A7200C4F840084041
S31500005020087000C41041084041130C23527C407B99
S3150000503001502FA8050CFC23341200C1FF3FC0E02D
S31500005040113A28130A0C00C00000010008140632A9
S315000050502813050C0150081408B86D7800A00878CC
S31500005060097804112141181000A000B900C09C1055
S31500005070084018101C200AB9181000A0115910D9A0
S3150000508006710760076008D90471076004D90471C6
S31500005090036002D90471016001D90471006000A0A7
S315000050A010880411023006710761076100C0FFFF16
S315000050B000001138009100A00028012803280018DC
S315000050C0002A012A0A18292A0118052A022900009D
S315000050D0F01921B4478FA4BFA14F63FDEED6141D6E
S315000050E0636032E0375EA488534E6DFB6435BFF7CC
S315000050F053A1811F582CD0A54540FC34F327429874
S315000051009F3EE22E0ECFFFBF1E45CA8C68234A4F34
S3150000511016531EC44CBAAD9D324B6808CF7BC04CAB
S315000051200C0053696C69636F6E204C6162730000FA
S315000051300500021500292A0002000A1802000000D4
S315000051400500021200012A00030000000000000012
S315000051500500021000002A000200001801000000ED
S315000051601300020D0016531EC44CBAAD9D324B6897
S3150000517008CF7BC04C0000000800000000000000C3
S31500005180000000001300020B009F3EE22E0ECFFF30
S31500005190BF1E45CA8C68234A4F0000000C0200005F
S315000051A00000000013000C090053A1811F582CD0E9
S315000051B0A54540FC34F32742980000000801000092
S315000051C0000000001300080700636032E0375EA4A9
S315000051D088534E6DFB6435BFF70000001000F019D0
S315000051E021B4478FA4BFA14F63FDEED6141D000066
S315000051F020000400181500200500200300052A00E1
S315000052000200011800000108FFFF00000052000024
S3150000521002000108FFFF0000F85100000900000825
S31500005220FFFF0001F05100000A000708FFFF00031E
S315000052300200000000000108FFFF0000DC51000032
S3150000524002000108FFFF0000C451000001800208AF
S31500005250FFFF0007BC51000002000108FFFF00002D
S31500005260A451000002800608FFFF00079C510000C1
S3150000527002000108FFFF00008451000003800108BE
S31500005280FFFF00007851000002000108FFFF000048
S315000052906051000004800108FFFF00005C5100001F
S315000052A000000108FFFF000058510000020001083D
S315000052B0FFFF00005051000004000108FFFF00003E
S315000052C04851000002000108FFFF000040510000A5
S315000052D005000108FFFF00003C5100000000010826
S315000052E0FFFF00003851000002000108FFFF000028
S315000052F03051000007000108FFFF000020510000A8
S315000053000300070009000000002801280328FFFF0A
S315000053100018002A012A0000F01921B4478FA4BF03
S31500005320A14F63FDEED6141DD1A0835000AAD387EA
S31500005330174859A75DE904E6915276BB260000801E
S3150000534000100000A50000009A9396D7BD6AD9B553
S315000053501646D281FEF046DC636032E0375EA488F2
S31500005360534E6DFB6435BFF753A1811F582CD0A552
S315000053704540FC34F32742989F3EE22E0ECFFFBFF6
S315000053801E45CA8C68234A4F16531EC44CBAAD9D9F
S31500005390324B6808CF7BC04C020000000500022299
S315000053A000012A00030000000000000005000220A2
S315000053B000002A0002000018001501008D150020CB
S315000053C0001401008E1500200213020000020020C6
S315000053D00A1200000000000013000A1A0016531EED
S315000053E0C44CBAAD9D324B6808CF7BC04C00000060
S315000053F0001101008F1500200010010090150020FB
S31500005400020F0200020200200A0E00000000000047
S3150000541013000A15009F3EE22E0ECFFFBF1E45CA9F
S315000054208C68234A4F000000000D010091150020F2
S31500005430000C010092150020020B0200040200205D
S315000054400A0A00000000000013000A100053A181A0
S315000054501F582CD0A54540FC34F327429800000085
S315000054600009010093150020000801009415002092
S3150000547002070200060200200A06000000000000E3
S3150000548013000A0B00636032E0375EA488534E6D4A
S31500005490FB6435BFF70000000005010095150020EC
S315000054A00004010096150020000301009715002056
S315000054B002020200080200200A01000000000000AB
S315000054C013000A0500915276BB26000080001000EA
S315000054D000A5000000000000020002000A020020F1
S315000054E01300020300D1A0835000AAD3871748599E
S315000054F0A75DE904E60000001000F01921B4478F0B
S31500005500A4BFA14F63FDEED6141D000000000108E4
S31500005510FFFF0000F854000002000108FFFF000032
S31500005520E054000001800108FFFF0001D85400008C
S3150000553002000108FFFF0000C054000002800308BB
S31500005540FFFF0007B854000003800108FFFF0001B9
S31500005550B054000003000000FFFF0001A854000043
S3150000556003000000FFFF0001A0540000030000003C
S31500005570FFFF00019854000002000108FFFF000031
S315000055808054000004800308FFFF000778540000E1
S3150000559003800108FFFF00017054000003000000B3
S315000055A0FFFF00016854000003000000FFFF000138
S315000055B06054000002000108FFFF0000485400008C
S315000055C005800308FFFF0007405400000380010820
S315000055D0FFFF00013854000003000000FFFF000138
S315000055E03054000003000000FFFF000128540000B3
S315000055F002000108FFFF00001054000006800308A7
S31500005600FFFF00070854000003800108FFFF0001A8
S315000056100054000003000000FFFF0001F8530000E3
S3150000562003000000FFFF0001F05300000200010824
S31500005630FFFF0000D853000007800308FFFF0007A4
S31500005640D053000003800108FFFF0001C85300008B
S3150000565003000000FFFF0001C0530000030000002C
S31500005660FFFF0001B853000000000108FFFF000023
S31500005670B453000002000108FFFF0000AC53000015
S3150000568005000108FFFF0000A45300000200010806
S31500005690FFFF00009C53000006000108FFFF00000A
S315000056A098530000030005000600070008000900E3
S315000056B00B000C000D000E0010001100120013006C
S315000056C015001600170018001A001B001C001D000C
S315000056D004520000150000000B000000B850000046
S315000056E005000000D0500000030000000053000039
S315000056F0F00D020000000000E00E020000000000B5
S31500005700FFFFFFFF0C55000022000000070000000D
S31500005710085300000800000018530000160000009F
S31500005720A4560000E10E020000000000E20E020096
S3150000573000000000FFFFFFFF010000000000000066
S315000057400000000000000000000000000000000053
S31500005750020000000000000000000000030000003E
S315000057600000000000000000000000000300000030
S31500005770010000000000000002000000010000001F
S31500005780020000000300000013B779FAC925DDB74F
S31500005790ADF3CFE0F1B614B800010000010000003F
S315000057A0E30E0200080000000002040200000000F0
S315000057B000000000000000000000000000000000E3
S315000057C0000000000100020015005400A90053016A
S315000057D0A7024F059F0A000013001D0012001000CB
S315000057E01500000067800000C3800000CF80000025
S315000057F0000103FF04FF020000000000000000009B
S315000058003C0094003C009600F4010000FA00000001
S3150000581096000000640000004B000000320000000B
S315000058201E00000014000000000000000000000040
S315000058300000000000280000000000000200000038
S31500005840000000000028000000000000100000001A
S315000058506C888391AAF5A53860370BDB5A6083BE46
S315000058603F49F6D4A3C55F3874C9B3E3D2103F509D
S315000058704AFF607BEB40B7995899B8A6CD3C1ABD54
S31500005880E69D350E480103CCDBFDF4AC1191F4EF37
S31500005890B9A5F9E9A7832C5E2CBE97F2D203B020F6
S315000058A08BD28915D08E1C742430ED8FC245637659
S315000058B05C15525ABF9A32636DEB2A65499C80DCAF
S315000058C000000000000000000100000000000000D1
S315000058D001000000000000000000000001000000C0
S315000058E000000000010000000200000002000000AD
S315000058F0030000000000000002000000000000009D
S315000059000000000000000000000000000000000091
S31500005910020000000200000001000000000000007C
S31500005920020000000000000000000000010000006E
S31500005930000000000100000000000000050000005B
S315000059400100000000000000050000000200000049
S31500005950020000000300000000000000020000003A
S315000059600000000000000000000000000000000031
S315000059700000000002000000050000000100000019
S31500005980000000000500000001000000000000000B
S3150000599004000000010000000800000001000000F3
S315000059A010000000010000000001000001000000DE
S315000059B0000800001D000000000200001D0000009D
S315000059C0000400001D000000000001001D00000092
S315000059D00000000000000000C800FCFE1F811D0B37
S315000059E06ABDFBFFB0807F054A32FFFF7480160355
S315000059F0EA4B00005180B50127B200003F80490103
S31500005A0084C500003280D100F0C3000028807400F5
S31500005A1034B4000028004B00EAB500008C00FCFE00
S31500005A20FFFF0000000000001F8158114C42FAFFE2
S31500005A30A180CA050197FFFF5D806A024CA40000A1
S31500005A4041805701A7CC00003480E000BECA0000A8
S31500005A502A808C00CABC000029005200B5B900009B
S31500005A60C800FCFE1F01C80B7D30FBFFAB001C0508
S31500005A70035BFFFF7300FD02DC5500005300D501F8
S31500005A80BEAF00003F001901E4C800003300AC00BF
S31500005A9090C700002C006C00B1BC0000270043003A
S31500005AA046AF00009600FCFEFFFF0000000000006D
S31500005AB01F016D0FA182FAFF7E00C103791F00004E
S31500005AC05500E401F4B1000041003701C7C90000E8
S31500005AD03300C000CAC700002B006E00F7B90000F3
S31500005AE0260038008AA8000083FFBFFFE2FFF1FF0F
S31500005AF0F9FFFEFF000000000700000002000000A2
S31500005B000400000000000000040000000000000087
S31500005B100500000000000000000000000142010036
S31500005B20A5430100FB420100174301002543010084
S31500005B303343010051430100000000000000000053
S31500005B402B430100DD430100E54301000000000096
S31500005B50ED430100F3430100F9430100000000009A
S31500005B60FF430100000000000000000000000000EC
S31500005B70414A01000F44010000000000A944010051
S31500005B8035450100374501003D4501004945010005
S31500005B9046004000290002000008000046480503B0
S31500005BA059450000054500000000000006450000BC
S31500005BB00000000000000F40190000000200000075
S31500005BC0BC0C0020000008400000002175640100A4
S31500005BD09F640100976401008F640100C3640100A3
S31500005BE07964010081640100A964010003040408CA
S31500005BF00800000000000102020303030300000086
S31500005C0000000000000000000000270080841E0045
S31500005C10809C2B8F085C0000010000000000000043
S31500005C200000000000000000000000E1FFFFFFFF91
S31500005C30FFFFFFFFFFFFFFFF000000000000000066
S31500005C400000000001000000FFFFFFFF4B60D227AD
S31500005C503E3CCE3BF6B053CCB0061D65BC8698766E
S31500005C6055BDEBB3E7933AAAD835C65A96C298D82B
S31500005C704539A1F4A033EB2D817D0377F240A4636F
S31500005C80E5E6BCF847422CE1F2D1176BF551BF3778
S31500005C906840B6CBCE5E316B5733CE2B169E0F7C4B
S31500005CA04AEBE78E9B7F1AFEE242E34F512563FCE7
S31500005CB0C2CAB9F3849E17A7ADFAE6BCFFFFFFFF81
S31500005CC0FFFFFFFF00000000FFFFFFFFAE03000025
S31500005CD0000000003333330000000000333333008C
S31500005CE0000000003333330000000000333333007C
S31500005CF00000000033333300F00F0101D05C0000D8
S31500005D00F40F010100000000F80F010100C00300BC
S31500005D10FC0F01010BC0030004000100018101001A
S31500005D20080001000001000018000100000000004A
S31500005D301C00010001000000280001000000000016
S31500005D402C000100000000003000010000000000EF
S31500005D50340001000000000040000100A007000020
S31500005D60480001000000000054000100000000008F
S31500005D705800010000000000A000010001480000DA
S31500005D80A4000100FF4C0000A8000100014900002A
S31500005D90AC000100FF4D00000020010008070000D4
S31500005DA010200100FFFFFF00182001000060DA004C
S31500005DB0083001003FAC000030300100AA2A100074
S31500005DC034300100010000004030010000000000F6
S31500005DD0A04001007A27000FF440010020100000C7
S31500005DE0344101008008000038410100E6870000C8
S31500005DF0404101004800880044410100C0E65311BB
S31500005E00146001001000000018600100000000840A
S31500005E101C6001001FC0010020600100C8200000B6
S31500005E20246001000000000028600100000000035B
S31500005E302C6001000000000030600100C804FF0073
S31500005E4034600100A2080000386001000A00000169
S31500005E503C6001009200040040600100D6BE898EBD
S31500005E604460010000000000486001008C00D40A74
S31500005E704C6001000000000050600100D1032A00C0
S31500005E80546001000000000058600100000000009E
S31500005E905C600100040A13226060010032414A4F2F
S31500005EA0646001000000000014700100F870020038
S31500005EB018700100000300001C7001006000D08112
S31500005EC02870010000008001487001003C3D000080
S31500005ED04C700100BC1900007070010005810000C3
S31500005EE07470010013010000787001000023550052
S31500005EF0FFFFFFFFF00F0101D05C0000F40F01016E
S31500005F0000000000FC0F01010BC003000830010077
S31500005F103FAC0000F440010020100000FFFFFFFF2F
S31500005F20F00F0101F05C0000F40F01010008000011
S31500005F30FC0F010108C003000830010037AC000067
S31500005F40FFFFFFFFF00F0101E85C0000FC0F0101FD
S31500005F5009C003000830010037AC0000F44001001E
S31500005F6020000000FFFFFFFFF00F0101D85C0000DA
S31500005F70F440010020000000FFFFFFFFF00F0101C9
S31500005F80E05C0000FC0F010109C0030008300100BD
S31500005F9037AC0000FFFFFFFF00000000010000001B
S31500005FA008070F000A00C80020000000A00000003B
S31500005FB00000000000000000A00055010A200706AE
S31500005FC0020A0407000000000100000005000000AE
S31500005FD000000000000000000000000000000000BB
S31500005FE00800020004000200C409000001000100CC
S31500005FF0636032E0375EA488534E6DFB6435BFF7AD
S3150000600053A1811F582CD0A54540FC34F327429854
S31500006010B814B6F1E0CFF3ADB7DD25C9FA79B713F9
S31500006020DFF8F01308607047DFF8EC23537803803D
S3150000603090780880704710B5DFF8DC331C7804438D
S315000060401C70012804BF59709A7010BD38B50446FB
S315000060500D462278611C284600F00AFA207828614D
S3150000606031BD2DE9F04385B081460E4617461C46E4
S3150000607000F00FFAFF1EDFF8A483DFF8A45338D030
S315000060807F1E53D0FF1F00F01081FC3F00F0AA8056
S315000060907F1E00F005817F1E00F0DE80F83F49D0AC
S315000060A0BF1E5AD0FF1E73D07F1E00F0F180FB3F4B
S315000060B014D040F2FF403F1A00F035817F1E00F0F9
